:1000000022C046C00EC244C043C072C341C040C0FB
:100010003FC03EC03DC03CC03BC03AC039C00102F9
:100020000000040001020408102002020202020281
:100030000000000036000000000038000000000052
:10004000370015011B0111241FBECFE5D2E0DEBF32
:10005000CDBF10E0A0E6B0E0EAEAFEE002C0059005
:100060000D92A037B107D9F720E0A0E7B0E001C0BA
:100070001D92A33EB207E1F710E0C2E2D0E003C058
:100080002197FE01CDD6C132D107D1F7F7D401C7F0
:10009000B7CF40E855E260E070E086E790E0B8D284
:1000A00060E083E812D460E082E80FD468E97AE384
:1000B00080E090E08EC3CF92DF92EF92FF920F9399
:1000C0001F93CF93DF9300D01F92CDB7DEB783E8A5
:1000D000BAD37C0182E8B7D38E199F09092E000C90
:1000E000AA0BBB0B40917200509173006091740099
:1000F000709175008C019D01040F151F261F371F7D
:10010000C901B8010093720010937300209374002A
:100110003093750020917000309171002F5F3F4F38
:100120003093710020937000203131050CF46CC0C5
:10013000032E000C440B550B43D6209372003093D2
:1001400073004093740050937500CA01B901D3D471
:1001500020E030E04AEF53E482D520E030E040E890
:100160005AE37DD56B017C0120E030E0A9018CD4FD
:1001700087FF06C0F7FAF094F7F8F0941DE201C08B
:100180001BE220E030E040E251E4C701B60167D550
:100190007FD4DC01CB014AE0BE016F5F7F4F46D6C2
:1001A00061E686E790E063D4612F86E790E05FD454
:1001B00020E030E040E251E4C701B6014CD587FFB2
:1001C00011C020E030E040E85FE3C701B6015CD435
:1001D00060E387FF04C086E790E049D460E386E7E8
:1001E00090E045D4BE016F5F7F4F86E790E03ED43C
:1001F00010927100109270001092720010927300B1
:10020000109274001092750068EC70E080E090E04D
:10021000E0D20F900F900F90DF91CF911F910F912F
:10022000FF90EF90DF90CF90089520E041E060E0F4
:1002300086E790E0C4C186E790E06DC12091D700C9
:100240003091D80028173907B9F490919500809122
:100250009600981789F0E0919500F0E0E956FF4F7D
:1002600080812091950030E02F5F3F4F2F7333271F
:100270002093950090E008958FEF9FEF08951F93CE
:10028000CF93DF93DC015C962D913C915D97211516
:10029000310539F481E090E013969C938E93129788
:1002A0003DC05196ED91FC91529750969C9150977C
:1002B000892F80951FB75E964C915E9741FB7727FB
:1002C00070F941FD6095F8944081772311F0492B36
:1002D00001C048234083E9012197F1F748E05081AC
:1002E00060FF02C0592B01C058235083E9012197B8
:1002F000F1F76695415099F7772321F09081892392
:10030000808303C08081982B90831FBF5C968D9162
:100310009C915D970197F1F721E030E0C901DF91F1
:10032000CF911F9108952091D7003091D8002817C0
:10033000390781F49091950080919600981751F0BB
:10034000E0919500F0E0E956FF4F8081082E000C07
:10035000990B08958FEF9FEF08952091D70030916A
:10036000D8002817390769F48091960020919500EC
:1003700090E0805C9F4F821B910960E470E0EBD4B9
:10038000089580E090E008952091D7003091D80042
:100390002817390739F48FB7F89410929600109205
:1003A00095008FBF0895E091D700F091D800E8172D
:1003B000F90769F4A389B4899C918589809589237B
:1003C0008C931092D8001092D70081E0089580E0BD
:1003D0000895CF93DF93EC018A8D9B8D892BE9F0F3
:1003E0008091D7009091D8008C179D07B1F00097AD
:1003F00009F0D9DF8E8D8E7F8E8F1092960010922D
:100400009500D093D800C093D700EB89FC899081E8
:100410008D89892B808381E001C080E0DF91CF91BD
:1004200008951F920F920FB60F9211242F933F93AE
:100430004F935F936F937F938F939F93AF93BF93EC
:10044000EF93FF93E091D700F091D800309709F433
:1004500051C0968DA685B785858591FF04C09C9176
:10046000892329F447C09C91892309F043C0A389BB
:10047000B4899C918589809589238C9386899789F5
:100480000197F1F7608D718DA685B785558538E0A8
:1004900020E0CB010197F1F7822F90E095958795A9
:1004A000282F4C91452309F02068315091F7868D13
:1004B00081FD20958091960090E001968F73992799
:1004C00030919500381749F0A0919600B0E0A956F8
:1004D000BF4F2C938093960003C0868D8160868FDA
:1004E000828D938D0197F1F7A389B4899C918589B9
:1004F000892B8C93FF91EF91BF91AF919F918F9139
:100500007F916F915F914F913F912F910F900FBE0F
:100510000F901F90189524E630E0FC013183208372
:1005200042CF1F93CF93DF93EC01162F6E8D66950C
:10053000617081E06827812F17D261E0812FC5D1DA
:10054000612F70E0FB01EC5DFF4FE491E88BFB0154
:10055000E65DFF4FE491F0E0EE0FFF1FEA5CFF4F16
:10056000859194919A8B898BDF91CF911F910895FA
:100570001F93CF93DF93EC01162F60E0812FA5D15D
:100580008E8D81FD03C061E0812FEED11C87612F2C
:1005900070E0FB01EC5DFF4FE491ED87FB01E65D50
:1005A000FF4FE491F0E0EE0FFF1FE05DFF4F8591FC
:1005B00094919F878E87DF91CF911F9108951F930C
:1005C000CF93DF93EC01162F1B821A8288EE93E003
:1005D000A0E0B0E08C839D83AE83BF8384E690E08F
:1005E000998388831F8A1E8A198E188E1B8E1A8EF5
:1005F0001D8E1C8E8E8D8E7F20FB81F98E8F642F39
:10060000CE018FDF612FCE01DF91CF911F91B0CF4F
:10061000CF93DF93EC019A01AB011B8E1A8E198EDA
:10062000188E1F8A1E8A60E874E88EE190E0C8D3B5
:10063000B9012430310518F0C901039702C081E0E7
:1006400090E09D8F8C8F8C85863008F03EC0C9016C
:10065000969587958431910510F0439702C081E00B
:1006600090E09F8B8E8B6630710518F0C90105975D
:1006700002C081E090E0998F888FC90163E070E04B
:1006800059D396958795969587958D30910510F05D
:100690000C9702C081E090E09B8F8A8F8BB78062BD
:1006A0008BBF9C85963018F020E030E002C025E337
:1006B00030E03C8B2B8B81E001C0880F9A95EAF7E4
:1006C0008D8B8C8D9D8D0197F1F7CE01DF91CF91B0
:1006D00080CE80B7807F80BF80B7806880BF8CB5B8
:1006E00080648CBD8FEF8DBD80B7876080BF08951B
:1006F0001F920F920FB60F9211242F933F938F9357
:100700009F93AF93BF938091DA009091DB00A0910B
:10071000DC00B091DD003091D90026E0230F2D37A9
:1007200030F029E8230F0396A11DB11D03C00296E6
:10073000A11DB11D2093D9008093DA009093DB00B6
:10074000A093DC00B093DD008091DE009091DF008B
:10075000A091E000B091E1000196A11DB11D809330
:10076000DE009093DF00A093E000B093E100BF9122
:10077000AF919F918F913F912F910F900FBE0F904E
:100780001F9018953FB7F8948091DE009091DF009C
:10079000A091E000B091E10022B708B601FE05C0CB
:1007A0002F3F19F00196A11DB11D3FBFBA2FA92FF0
:1007B000982F8827820F911DA11DB11DBC01CD016D
:1007C00043E0660F771F881F991F4A95D1F7089558
:1007D0000895CF92DF92EF92FF92CF93DF936B0158
:1007E0007C01D0DFEB01C114D104E104F10479F004
:1007F000EFDFC8DF6C1B7D0B683E7340A0F381E028
:10080000C81AD108E108F108C851DC4FF2CFDF91D6
:10081000CF91FF90EF90DF90CF9008958AB58260DE
:100820008ABD8AB581608ABD83B7887F836083BFB4
:10083000789489B7826089BF4CDF86B188778668F3
:1008400086B9379A08958F709091E2009295990F2A
:10085000990F907C892B87B987B19091E20092FB28
:10086000222720F930E094E0220F331F9A95E1F718
:10087000282B27B9369A3699FECF84B125B190E05E
:10088000922B0895813031F48AB58F778ABD8AB56D
:100890008F7B07C0823039F48AB58F7D8ABD8AB5D7
:1008A0008F7E8ABD0895833039F480B78F7D80BFF5
:1008B00080B78F7E80BF0895843031F48CB58F7DF2
:1008C0008CBD8CB58F7E8CBD0895CF93DF9387FF51
:1008D00011C08F7741F0813041F0823041F0833098
:1008E00041F08FEF07C085E005C082E003C084E0DF
:1008F00001C083E090E0FC01EC5DFF4F2491FC011E
:10090000E65DFF4F8491882361F190E0880F991F85
:10091000FC01E45CFF4FC591D491FC01EA5CFF4F00
:10092000A591B491611109C09FB7F8948881209571
:1009300082238883EC912E230BC0623061F49FB731
:10094000F8943881822F809583238883EC912E2B15
:100950002C939FBF06C08FB7F894E8812E2B288375
:100960008FBFDF91CF9108950F931F93CF93DF93A4
:100970001F92CDB7DEB787FF11C08F7741F081306E
:1009800041F0823041F0833041F08FEF07C085E0C5
:1009900005C082E003C084E001C083E0282F30E07E
:1009A000F901E25EFF4F8491F901EC5DFF4F149174
:1009B000F901E65DFF4F04910023D9F0882319F077
:1009C000698360DF6981E02FF0E0EE0FFF1FEA5CD2
:1009D000FF4FA591B4918FB7611106C0F8949C9117
:1009E000E12FE095E92303C0F894EC91E12BEC931F
:1009F0008FBF0F90DF91CF911F910F910895CF92EC
:100A0000DF92EF92FF920F931F93CF93DF936C01CE
:100A1000EB017B01E40EF51E00E010E0CE15DF05D2
:100A200061F06991D601ED91FC910190F081E02D8A
:100A3000C6010995080F191FF1CFC801DF91CF91A9
:100A40001F910F91FF90EF90DF90CF900895FB01E1
:100A500001900020E9F73197AF01461B570BDC01ED
:100A6000ED91FC910280F381E02D0994F0CFDC013F
:100A7000ED91FC910190F081E02D099481B781BF47
:100A8000CDDE07DB18DBFECF71D008F481E00895DE
:100A900004D06894B111D9C00895BCD088F09F5794
:100AA00090F0B92F9927B751A0F0D1F0660F771FBA
:100AB000881F991F1AF0BA95C9F712C0B13081F09A
:100AC000C3D0B1E00895C0C0672F782F8827B85FE2
:100AD00039F0B93FCCF3869577956795B395D9F7FB
:100AE0003EF490958095709561957F4F8F4F9F4F05
:100AF0000895E89409C097FB3EF490958095709511
:100B000061957F4F8F4F9F4F9923A9F0F92F96E959
:100B1000BB279395F695879577956795B795F111CE
:100B2000F8CFFAF4BB0F11F460FF1BC06F5F7F4F6B
:100B30008F4F9F4F16C0882311F096E911C077237D
:100B400021F09EE8872F762F05C0662371F096E886
:100B5000862F70E060E02AF09A95660F771F881F55
:100B6000DAF7880F9695879597F90895990F0008F9
:100B7000550FAA0BE0E8FEEF16161706E807F9076F
:100B8000C0F012161306E407F50798F0621B730B0A
:100B9000840B950B39F40A2661F0232B242B252B8B
:100BA00021F408950A2609F4A140A6958FEF811D2E
:100BB000811D089597F99F6780E870E060E00895CF
:100BC0009FEF80EC089500240A9416161706180665
:100BD0000906089500240A94121613061406050641
:100BE0000895092E0394000C11F4882352F0BB0FD2
:100BF00040F4BF2B11F460FF04C06F5F7F4F8F4F35
:100C00009F4F089557FD9058440F551F59F05F3F6F
:100C100071F04795880F97FB991F61F09F3F79F01E
:100C200087950895121613061406551FF2CF4695A0
:100C3000F1DF08C0161617061806991FF1CF869522
:100C40007105610508940895E894BB276627772706
:100C5000CB0197F908958ADF08F48FEF08950AD041
:100C6000C0CFB1DF28F0B6DF18F0952309F0A2CF8E
:100C7000A7CFEBCFC7DFA8F39923D9F35523C9F347
:100C8000950F50E0551FAA27EE27FF27BB2700240A
:100C90000894679520F4E20FF31FB41F0A1E220F79
:100CA000331F441FAA1F6695A9F7779530F4F30FF9
:100CB000B41F0A1E121E08F46395330F441FAA1FA7
:100CC000221F769599F7879520F4B40F0A1E121EFD
:100CD000631F440FAA1F221F331F8695A9F7862F73
:100CE000712D602D11249F5750408AF0E1F0882328
:100CF0004AF0EE0FFF1FBB1F661F771F881F915022
:100D00005040A9F79E3F510570F054CF9ECF5F3FF2
:100D1000ECF3983EDCF3869577956795B795F79554
:100D2000E7959F5FC1F7FE2B880F911D96958795DC
:100D300097F908950024552704C0080E591F880FFD
:100D4000991F009729F076956795B8F37105B9F763
:100D5000802D952F089597FB072E16F4009406D04A
:100D600077FD08D049D007FC05D03EF490958195D9
:100D70009F4F0895709561957F4F0895A1E21A2EB7
:100D8000AA1BBB1BFD010DC0AA1FBB1FEE1FFF1F2F
:100D9000A217B307E407F50720F0A21BB30BE40B7F
:100DA000F50B661F771F881F991F1A9469F76095C6
:100DB0007095809590959B01AC01BD01CF01089580
:100DC000052E97FB16F400940FD057FD05D0D6DF03
:100DD00007FC02D046F408C0509540953095219507
:100DE0003F4F4F4F5F4F0895909580957095619557
:100DF0007F4F8F4F9F4F0895AA1BBB1B51E107C028
:100E0000AA1FBB1FA617B70710F0A61BB70B881F9A
:100E1000991F5A95A9F780959095BC01CD01089529
:100E2000EE0FFF1F0590F491E02D0994BB274A3087
:100E300031F4992322F4BDE2909581959F4F01C032
:100E4000BB27FB015527AA27880F991FAA1FA417A4
:100E500010F0A41B83955051B9F7A05DAA3308F098
:100E6000A95DA193009779F7B111B1931192CB01CC
:100E700000C0DC01FC01672F71917723E1F7329705
:100E800004C07C916D9370836291AE17BF07C8F365
:100E9000089510E0C2E2D0E003C0FE01C1DF219658
:0A0EA000C332D107D1F7F894FFCF59
:100EAA00000000003F01FF04AD011E019301C401CF
:00000001FF
